{
  "contractName": "Orioneum",
  "abi": [
    {
      "constant": false,
      "inputs": [],
      "name": "renounceOwnership",
      "outputs": [],
      "payable": false,
      "stateMutability": "nonpayable",
      "type": "function"
    },
    {
      "constant": true,
      "inputs": [],
      "name": "owner",
      "outputs": [
        {
          "name": "",
          "type": "address"
        }
      ],
      "payable": false,
      "stateMutability": "view",
      "type": "function"
    },
    {
      "constant": true,
      "inputs": [],
      "name": "isOwner",
      "outputs": [
        {
          "name": "",
          "type": "bool"
        }
      ],
      "payable": false,
      "stateMutability": "view",
      "type": "function"
    },
    {
      "constant": false,
      "inputs": [
        {
          "name": "newOwner",
          "type": "address"
        }
      ],
      "name": "transferOwnership",
      "outputs": [],
      "payable": false,
      "stateMutability": "nonpayable",
      "type": "function"
    },
    {
      "inputs": [
        {
          "name": "_warehouse_addr",
          "type": "address"
        }
      ],
      "payable": false,
      "stateMutability": "nonpayable",
      "type": "constructor"
    },
    {
      "anonymous": false,
      "inputs": [
        {
          "indexed": true,
          "name": "oad_addr",
          "type": "address"
        }
      ],
      "name": "Orioneum_REGISTER_NEW",
      "type": "event"
    },
    {
      "anonymous": false,
      "inputs": [
        {
          "indexed": true,
          "name": "oad_addr",
          "type": "address"
        }
      ],
      "name": "Orioneum_REGISTER_FAILED",
      "type": "event"
    },
    {
      "anonymous": false,
      "inputs": [
        {
          "indexed": true,
          "name": "previousOwner",
          "type": "address"
        },
        {
          "indexed": true,
          "name": "newOwner",
          "type": "address"
        }
      ],
      "name": "OwnershipTransferred",
      "type": "event"
    },
    {
      "constant": false,
      "inputs": [
        {
          "name": "_oad_type",
          "type": "uint256"
        },
        {
          "name": "_bundleable",
          "type": "bool"
        },
        {
          "name": "_ipfs_hash",
          "type": "string"
        }
      ],
      "name": "register",
      "outputs": [
        {
          "name": "",
          "type": "bool"
        }
      ],
      "payable": false,
      "stateMutability": "nonpayable",
      "type": "function"
    },
    {
      "constant": true,
      "inputs": [
        {
          "name": "_owner_addr",
          "type": "address"
        },
        {
          "name": "_only_bundle",
          "type": "bool"
        }
      ],
      "name": "queryByOwner",
      "outputs": [
        {
          "name": "",
          "type": "address[]"
        }
      ],
      "payable": false,
      "stateMutability": "view",
      "type": "function"
    },
    {
      "constant": true,
      "inputs": [
        {
          "name": "_oad_type",
          "type": "uint256"
        },
        {
          "name": "_only_bundle",
          "type": "bool"
        }
      ],
      "name": "queryByType",
      "outputs": [
        {
          "name": "",
          "type": "address[]"
        }
      ],
      "payable": false,
      "stateMutability": "view",
      "type": "function"
    },
    {
      "constant": true,
      "inputs": [
        {
          "name": "_oad_addr",
          "type": "address"
        }
      ],
      "name": "queryBaseOAD",
      "outputs": [
        {
          "name": "",
          "type": "uint256"
        },
        {
          "name": "",
          "type": "address"
        },
        {
          "name": "",
          "type": "bool"
        },
        {
          "name": "",
          "type": "string"
        }
      ],
      "payable": false,
      "stateMutability": "view",
      "type": "function"
    }
  ],
  "bytecode": "0x608060405234801561001057600080fd5b50604051602080610fdb8339810180604052602081101561003057600080fd5b5051600080546001600160a01b03191633178082556040516001600160a01b039190911691907f8be0079c531659141344cd1fd0a4f28419497f9722a3daafe3b4186f6b6457e0908290a3600180546001600160a01b0319166001600160a01b038381169190911791829055604080517f8da5cb5b00000000000000000000000000000000000000000000000000000000815290519290911691638da5cb5b91600480820192602092909190829003018186803b1580156100f057600080fd5b505afa158015610104573d6000803e3d6000fd5b505050506040513d602081101561011a57600080fd5b50516001600160a01b0316610134610199602090811b901c565b6001600160a01b031614610193576040517f08c379a000000000000000000000000000000000000000000000000000000000815260040180806020018281038252603b815260200180610fa0603b913960400191505060405180910390fd5b506101a8565b6000546001600160a01b031690565b610de9806101b76000396000f3fe608060405234801561001057600080fd5b50600436106100885760003560e01c80638f32d59b1161005b5780638f32d59b1461015e578063e2177ce01461017a578063f2fde38b1461022e578063fa0557121461025457610088565b80635363a1f91461008d578063715018a61461010b5780638547cf37146101155780638da5cb5b1461013a575b600080fd5b6100bb600480360360408110156100a357600080fd5b506001600160a01b038135169060200135151561031d565b60408051602080825283518183015283519192839290830191858101910280838360005b838110156100f75781810151838201526020016100df565b505050509050019250505060405180910390f35b610113610402565b005b6100bb6004803603604081101561012b57600080fd5b5080359060200135151561045d565b6101426104b1565b604080516001600160a01b039092168252519081900360200190f35b6101666104c0565b604080519115158252519081900360200190f35b6101666004803603606081101561019057600080fd5b81359160208101351515918101906060810160408201356401000000008111156101b957600080fd5b8201836020820111156101cb57600080fd5b803590602001918460018302840111640100000000831117156101ed57600080fd5b91908080601f0160208091040260200160405190810160405280939291908181526020018383808284376000920191909152509295506104d1945050505050565b6101136004803603602081101561024457600080fd5b50356001600160a01b03166106e5565b61027a6004803603602081101561026a57600080fd5b50356001600160a01b0316610702565b60405180858152602001846001600160a01b03166001600160a01b031681526020018315151515815260200180602001828103825283818151815260200191508051906020019080838360005b838110156102df5781810151838201526020016102c7565b50505050905090810190601f16801561030c5780820380516001836020036101000a031916815260200191505b509550505050505060405180910390f35b60015460408051600160e01b63379c51310281526001600160a01b03858116600483015291516060938493169163379c5131916024808301926000929190829003018186803b15801561036f57600080fd5b505afa158015610383573d6000803e3d6000fd5b505050506040513d6000823e601f3d908101601f1916820160405260208110156103ac57600080fd5b8101908080516401000000008111156103c457600080fd5b820160208101848111156103d757600080fd5b81518560208202830111640100000000821117156103f457600080fd5b509098975050505050505050565b61040a6104c0565b61041357600080fd5b600080546040516001600160a01b03909116907f8be0079c531659141344cd1fd0a4f28419497f9722a3daafe3b4186f6b6457e0908390a3600080546001600160a01b0319169055565b60015460408051600160e01b63cb0374c502815260048101859052905160609283926001600160a01b039091169163cb0374c591602480820192600092909190829003018186803b15801561036f57600080fd5b6000546001600160a01b031690565b6000546001600160a01b0316331490565b6000808484846040516104e390610878565b808481526020018315151515815260200180602001828103825283818151815260200191508051906020019080838360005b8381101561052d578181015183820152602001610515565b50505050905090810190601f16801561055a5780820380516001836020036101000a031916815260200191505b50945050505050604051809103906000f08015801561057d573d6000803e3d6000fd5b5060408051600160e01b63f2fde38b02815233600482015290519192506001600160a01b0383169163f2fde38b9160248082019260009290919082900301818387803b1580156105cc57600080fd5b505af11580156105e0573d6000803e3d6000fd5b505060015460408051600160e01b630a3b0a4f0281526001600160a01b0386811660048301529151919092169350630a3b0a4f925060248083019260209291908290030181600087803b15801561063657600080fd5b505af115801561064a573d6000803e3d6000fd5b505050506040513d602081101561066057600080fd5b50516106a4576040516001600160a01b038216907f3ffd64849d23154c03544aa482d7ea04aa7f667c11feacb6c6c0faff614580ee90600090a260009150506106de565b6040516001600160a01b038216907fdaaf52c7a429c11bec60025a3eebce89b697c591dd4881b1913237ae98ed40a190600090a260019150505b9392505050565b6106ed6104c0565b6106f657600080fd5b6106ff8161080a565b50565b60015460408051600160e01b63b0b8210f0281526001600160a01b038481166004830152915160009384938493606093919092169163b0b8210f9160248083019287929190829003018186803b15801561075b57600080fd5b505afa15801561076f573d6000803e3d6000fd5b505050506040513d6000823e601f3d908101601f19168201604052608081101561079857600080fd5b81516020830151604084015160608501805193959294919391830192916401000000008111156107c757600080fd5b820160208101848111156107da57600080fd5b81516401000000008111828201871017156107f457600080fd5b50969c959b509399509297509295505050505050565b6001600160a01b03811661081d57600080fd5b600080546040516001600160a01b03808516939216917f8be0079c531659141344cd1fd0a4f28419497f9722a3daafe3b4186f6b6457e091a3600080546001600160a01b0319166001600160a01b0392909216919091179055565b610538806108868339019056fe60806040526000600155426002556003805460ff1916905534801561002357600080fd5b506040516105383803806105388339810180604052606081101561004657600080fd5b815160208301516040840180519294919382019264010000000081111561006c57600080fd5b8201602081018481111561007f57600080fd5b815164010000000081118282018710171561009957600080fd5b5050600080546001600160a01b03191633178082556040519295506001600160a01b0316935091507f8be0079c531659141344cd1fd0a4f28419497f9722a3daafe3b4186f6b6457e0908290a360018390556003805460ff1916831515179055805161010c906004906020840190610115565b505050506101b0565b828054600181600116156101000203166002900490600052602060002090601f016020900481019282601f1061015657805160ff1916838001178555610183565b82800160010185558215610183579182015b82811115610183578251825591602001919060010190610168565b5061018f929150610193565b5090565b6101ad91905b8082111561018f5760008155600101610199565b90565b610379806101bf6000396000f3fe608060405234801561001057600080fd5b50600436106100885760003560e01c80638f32d59b1161005b5780638f32d59b146101525780639c18bf951461016e578063c511488d14610176578063f2fde38b1461017e57610088565b806365008cd61461008d578063715018a6146100a7578063809051db146100b15780638da5cb5b1461012e575b600080fd5b6100956101a4565b60408051918252519081900360200190f35b6100af6101aa565b005b6100b9610205565b6040805160208082528351818301528351919283929083019185019080838360005b838110156100f35781810151838201526020016100db565b50505050905090810190601f1680156101205780820380516001836020036101000a031916815260200191505b509250505060405180910390f35b610136610293565b604080516001600160a01b039092168252519081900360200190f35b61015a6102a2565b604080519115158252519081900360200190f35b6100956102b3565b61015a6102b9565b6100af6004803603602081101561019457600080fd5b50356001600160a01b03166102c2565b60025481565b6101b26102a2565b6101bb57600080fd5b600080546040516001600160a01b03909116907f8be0079c531659141344cd1fd0a4f28419497f9722a3daafe3b4186f6b6457e0908390a3600080546001600160a01b0319169055565b6004805460408051602060026001851615610100026000190190941693909304601f8101849004840282018401909252818152929183018282801561028b5780601f106102605761010080835404028352916020019161028b565b820191906000526020600020905b81548152906001019060200180831161026e57829003601f168201915b505050505081565b6000546001600160a01b031690565b6000546001600160a01b0316331490565b60015481565b60035460ff1681565b6102ca6102a2565b6102d357600080fd5b6102dc816102df565b50565b6001600160a01b0381166102f257600080fd5b600080546040516001600160a01b03808516939216917f8be0079c531659141344cd1fd0a4f28419497f9722a3daafe3b4186f6b6457e091a3600080546001600160a01b0319166001600160a01b039290921691909117905556fea165627a7a723058201d617a264892c01bec57ba662c1b41d1c49c78be9cb8642f95d31a1f5af0262c0029a165627a7a723058201e613d567a8f728c2e8bb430df1ef2650526b0684d4852f865d7a56c03e5bcdc00295265676973747279206f776e6572206d7573742062652073616d6520617320466163746f727920616e642057617265686f757365206f776e65722e",
  "source": "pragma solidity 0.5.8;\n\nimport \"./BaseOAD.sol\";\nimport \"./Warehouse.sol\";\n\n\nimport \"openzeppelin-solidity/contracts/ownership/Ownable.sol\";\n\n\n\n/**\n*   The main Orioneum contract\n*\n*   @title Registry\n*   @author Tore Stenbock\n*/\ncontract Orioneum is Ownable {\n\n  // All Registry events\n  event Orioneum_REGISTER_NEW       (address indexed oad_addr);\n  event Orioneum_REGISTER_FAILED    (address indexed oad_addr);\n\n  // Orioneum Contracts\n  Warehouse private warehouse;\n\n\n\n  /**\n  *   Orioneum constructor\n  *\n  *   @author Tore Stenbock\n  *   @param _warehouse_addr The address of the Warehouse contract\n  */\n  constructor(address _warehouse_addr) Ownable() public {\n    // Get a handle on the Orioneum contracts and validate ownerships\n    warehouse = Warehouse(_warehouse_addr);\n    require(owner() == warehouse.owner(), \"Registry owner must be same as Factory and Warehouse owner.\");\n  }\n\n\n\n  /****************************************************************************/\n  /****             Registering pre-created OAD smart contracts            ****/\n  /****************************************************************************/\n\n  /**\n  *   Create and Register an OAD\n  *   The owner of the asset will be the sender of transaction\n  *\n  *   @author Tore Stenbock\n  *   @param _oad_type The OAD type\n  *   @param _bundleable Flag whether OAD is bundleable\n  *   @param _ipfs_hash The IPFS hash of the OAD data\n  */\n  function register(\n    uint _oad_type,\n    bool _bundleable,\n    string memory _ipfs_hash\n  )\n  public returns(bool)\n  {\n    // Create the asset and enforce proper owner\n    BaseOAD _oad = new BaseOAD(_oad_type, _bundleable, _ipfs_hash);\n    _oad.transferOwnership(msg.sender);\n\n    // Add the asset to the warehouse\n    if(!warehouse.add(_oad)) {\n      emit Orioneum_REGISTER_FAILED(address(_oad));\n      return(false);\n    }\n\n    emit Orioneum_REGISTER_NEW(address(_oad));\n    return(true);\n  }\n\n\n\n  /****************************************************************************/\n  /****                   Query Warehouse and Registry                     ****/\n  /****************************************************************************/\n\n  /**\n  *   Execute a query into the Registry and Warehouse to get all OADs\n  *   of certain type and owner. See OPD documentation for more details.\n  *\n  *   @author Tore Stenbock\n  *   @param _owner_addr The owner of the OADs\n  *   @param _only_bundle Flag to return only bundles\n  */\n  function queryByOwner(\n    address _owner_addr,\n    bool _only_bundle\n  )\n  public\n  view\n  returns(address[] memory)\n  {\n    address[] memory _oads_by_owner = warehouse.getByOwner(_owner_addr);\n    return(_oads_by_owner);\n  }\n\n  /**\n  *   Execute a query into the Registry and Warehouse to get all OADs\n  *   of certain type and all owners. See OPD documentation for more details.\n  *\n  *   @author Tore Stenbock\n  *   @param _oad_type The OAD type\n  *   @param _only_bundle Flag to return only bundles\n  */\n  function queryByType(\n    uint _oad_type,\n    bool _only_bundle\n  )\n  public\n  view\n  returns(address[] memory)\n  {\n    address[] memory _oads_by_type = warehouse.getByType(_oad_type);\n    return(_oads_by_type);\n  }\n\n  /**\n  *   Query the BaseOAD information of an OAD address from the Warehouse\n  *\n  *   @author Tore Stenbock\n  *   @param _oad_addr The OAD address\n  *   @return The BaseOAD information [uint type, address owner, bool bundleable, string ipfs_hash]\n  */\n  function queryBaseOAD(\n    address _oad_addr\n  )\n  public\n  view\n  returns(uint, address, bool, string memory)\n  {\n    return(warehouse.getBaseOAD(_oad_addr));\n  }\n}\n",
  "sourcePath": "/home/hsquare/Tore/orioneum/orioneum/contracts/Orioneum.sol",
  "compiler": {
    "name": "solc",
    "version": "0.5.8+commit.23d335f2.Emscripten.clang"
  },
  "schemaVersion": "3.0.17",
  "updatedAt": "2019-11-06T22:32:52.067Z",
  "networkType": "ethereum",
  "devdoc": {
    "author": "Tore Stenbock",
    "methods": {
      "constructor": {
        "author": "Tore Stenbock",
        "params": {
          "_warehouse_addr": "The address of the Warehouse contract"
        }
      },
      "isOwner()": {
        "return": "true if `msg.sender` is the owner of the contract."
      },
      "owner()": {
        "return": "the address of the owner."
      },
      "queryBaseOAD(address)": {
        "author": "Tore Stenbock",
        "params": {
          "_oad_addr": "The OAD address"
        },
        "return": "The BaseOAD information [uint type, address owner, bool bundleable, string ipfs_hash]"
      },
      "queryByOwner(address,bool)": {
        "author": "Tore Stenbock",
        "params": {
          "_only_bundle": "Flag to return only bundles",
          "_owner_addr": "The owner of the OADs"
        }
      },
      "queryByType(uint256,bool)": {
        "author": "Tore Stenbock",
        "params": {
          "_oad_type": "The OAD type",
          "_only_bundle": "Flag to return only bundles"
        }
      },
      "register(uint256,bool,string)": {
        "author": "Tore Stenbock",
        "params": {
          "_bundleable": "Flag whether OAD is bundleable",
          "_ipfs_hash": "The IPFS hash of the OAD data",
          "_oad_type": "The OAD type"
        }
      },
      "renounceOwnership()": {
        "details": "Allows the current owner to relinquish control of the contract. It will not be possible to call the functions with the `onlyOwner` modifier anymore."
      },
      "transferOwnership(address)": {
        "details": "Allows the current owner to transfer control of the contract to a newOwner.",
        "params": {
          "newOwner": "The address to transfer ownership to."
        }
      }
    },
    "title": "Registry"
  },
  "userdoc": {
    "methods": {
      "constructor": "Orioneum constructor",
      "queryBaseOAD(address)": {
        "notice": "Query the BaseOAD information of an OAD address from the Warehouse"
      },
      "queryByOwner(address,bool)": {
        "notice": "Execute a query into the Registry and Warehouse to get all OADs  of certain type and owner. See OPD documentation for more details."
      },
      "queryByType(uint256,bool)": {
        "notice": "Execute a query into the Registry and Warehouse to get all OADs  of certain type and all owners. See OPD documentation for more details."
      },
      "register(uint256,bool,string)": {
        "notice": "Create and Register an OAD  The owner of the asset will be the sender of transaction"
      },
      "renounceOwnership()": {
        "notice": "Renouncing ownership will leave the contract without an owner, thereby removing any functionality that is only available to the owner."
      }
    },
    "notice": "The main Orioneum contract"
  }
}